{
  "contractName": "JiraIssueToken",
  "abi": [
    {
      "inputs": [],
      "stateMutability": "nonpayable",
      "type": "constructor"
    },
    {
      "anonymous": false,
      "inputs": [
        {
          "indexed": true,
          "internalType": "address",
          "name": "owner",
          "type": "address"
        },
        {
          "indexed": true,
          "internalType": "address",
          "name": "spender",
          "type": "address"
        },
        {
          "indexed": false,
          "internalType": "uint256",
          "name": "value",
          "type": "uint256"
        }
      ],
      "name": "Approval",
      "type": "event"
    },
    {
      "anonymous": false,
      "inputs": [
        {
          "indexed": true,
          "internalType": "address",
          "name": "from",
          "type": "address"
        },
        {
          "indexed": true,
          "internalType": "address",
          "name": "to",
          "type": "address"
        },
        {
          "indexed": false,
          "internalType": "uint256",
          "name": "value",
          "type": "uint256"
        }
      ],
      "name": "Transfer",
      "type": "event"
    },
    {
      "inputs": [
        {
          "internalType": "address",
          "name": "owner",
          "type": "address"
        },
        {
          "internalType": "address",
          "name": "spender",
          "type": "address"
        }
      ],
      "name": "allowance",
      "outputs": [
        {
          "internalType": "uint256",
          "name": "",
          "type": "uint256"
        }
      ],
      "stateMutability": "view",
      "type": "function",
      "constant": true
    },
    {
      "inputs": [
        {
          "internalType": "address",
          "name": "spender",
          "type": "address"
        },
        {
          "internalType": "uint256",
          "name": "amount",
          "type": "uint256"
        }
      ],
      "name": "approve",
      "outputs": [
        {
          "internalType": "bool",
          "name": "",
          "type": "bool"
        }
      ],
      "stateMutability": "nonpayable",
      "type": "function"
    },
    {
      "inputs": [
        {
          "internalType": "address",
          "name": "account",
          "type": "address"
        }
      ],
      "name": "balanceOf",
      "outputs": [
        {
          "internalType": "uint256",
          "name": "",
          "type": "uint256"
        }
      ],
      "stateMutability": "view",
      "type": "function",
      "constant": true
    },
    {
      "inputs": [],
      "name": "decimals",
      "outputs": [
        {
          "internalType": "uint8",
          "name": "",
          "type": "uint8"
        }
      ],
      "stateMutability": "view",
      "type": "function",
      "constant": true
    },
    {
      "inputs": [
        {
          "internalType": "address",
          "name": "spender",
          "type": "address"
        },
        {
          "internalType": "uint256",
          "name": "subtractedValue",
          "type": "uint256"
        }
      ],
      "name": "decreaseAllowance",
      "outputs": [
        {
          "internalType": "bool",
          "name": "",
          "type": "bool"
        }
      ],
      "stateMutability": "nonpayable",
      "type": "function"
    },
    {
      "inputs": [
        {
          "internalType": "address",
          "name": "spender",
          "type": "address"
        },
        {
          "internalType": "uint256",
          "name": "addedValue",
          "type": "uint256"
        }
      ],
      "name": "increaseAllowance",
      "outputs": [
        {
          "internalType": "bool",
          "name": "",
          "type": "bool"
        }
      ],
      "stateMutability": "nonpayable",
      "type": "function"
    },
    {
      "inputs": [],
      "name": "name",
      "outputs": [
        {
          "internalType": "string",
          "name": "",
          "type": "string"
        }
      ],
      "stateMutability": "view",
      "type": "function",
      "constant": true
    },
    {
      "inputs": [],
      "name": "symbol",
      "outputs": [
        {
          "internalType": "string",
          "name": "",
          "type": "string"
        }
      ],
      "stateMutability": "view",
      "type": "function",
      "constant": true
    },
    {
      "inputs": [],
      "name": "totalSupply",
      "outputs": [
        {
          "internalType": "uint256",
          "name": "",
          "type": "uint256"
        }
      ],
      "stateMutability": "view",
      "type": "function",
      "constant": true
    },
    {
      "inputs": [
        {
          "internalType": "address",
          "name": "recipient",
          "type": "address"
        },
        {
          "internalType": "uint256",
          "name": "amount",
          "type": "uint256"
        }
      ],
      "name": "transfer",
      "outputs": [
        {
          "internalType": "bool",
          "name": "",
          "type": "bool"
        }
      ],
      "stateMutability": "nonpayable",
      "type": "function"
    },
    {
      "inputs": [
        {
          "internalType": "address",
          "name": "sender",
          "type": "address"
        },
        {
          "internalType": "address",
          "name": "recipient",
          "type": "address"
        },
        {
          "internalType": "uint256",
          "name": "amount",
          "type": "uint256"
        }
      ],
      "name": "transferFrom",
      "outputs": [
        {
          "internalType": "bool",
          "name": "",
          "type": "bool"
        }
      ],
      "stateMutability": "nonpayable",
      "type": "function"
    },
    {
      "inputs": [],
      "name": "mintJIT",
      "outputs": [],
      "stateMutability": "payable",
      "type": "function",
      "payable": true
    },
    {
      "inputs": [
        {
          "internalType": "uint256",
          "name": "amount",
          "type": "uint256"
        }
      ],
      "name": "recoverETH",
      "outputs": [],
      "stateMutability": "nonpayable",
      "type": "function"
    },
    {
      "inputs": [
        {
          "internalType": "address",
          "name": "account",
          "type": "address"
        },
        {
          "internalType": "uint256",
          "name": "amount",
          "type": "uint256"
        }
      ],
      "name": "deposit",
      "outputs": [],
      "stateMutability": "nonpayable",
      "type": "function"
    },
    {
      "inputs": [
        {
          "internalType": "address",
          "name": "account",
          "type": "address"
        },
        {
          "internalType": "uint256",
          "name": "amount",
          "type": "uint256"
        }
      ],
      "name": "withdraw",
      "outputs": [],
      "stateMutability": "nonpayable",
      "type": "function"
    }
  ],
  "bytecode": "0x60806040523480156200001157600080fd5b506040518060400160405280600e81526020017f4a6972614973737565546f6b656e0000000000000000000000000000000000008152506040518060400160405280600381526020017f4a49540000000000000000000000000000000000000000000000000000000000815250816003908051906020019062000096929190620000b8565b508060049080519060200190620000af929190620000b8565b505050620001cd565b828054620000c69062000168565b90600052602060002090601f016020900481019282620000ea576000855562000136565b82601f106200010557805160ff191683800117855562000136565b8280016001018555821562000136579182015b828111156200013557825182559160200191906001019062000118565b5b50905062000145919062000149565b5090565b5b80821115620001645760008160009055506001016200014a565b5090565b600060028204905060018216806200018157607f821691505b602082108114156200019857620001976200019e565b5b50919050565b7f4e487b7100000000000000000000000000000000000000000000000000000000600052602260045260246000fd5b611ed380620001dd6000396000f3fe6080604052600436106100e85760003560e01c806370a082311161008a578063a9059cbb11610059578063a9059cbb146102fd578063d33355531461033a578063dd62ed3e14610363578063f3fef3a3146103a0576100e8565b806370a082311461024e5780637100a3c01461028b57806395d89b4114610295578063a457c2d7146102c0576100e8565b806323b872dd116100c657806323b872dd14610180578063313ce567146101bd57806339509351146101e857806347e7ef2414610225576100e8565b806306fdde03146100ed578063095ea7b31461011857806318160ddd14610155575b600080fd5b3480156100f957600080fd5b506101026103c9565b60405161010f9190611855565b60405180910390f35b34801561012457600080fd5b5061013f600480360381019061013a91906112f3565b61045b565b60405161014c919061183a565b60405180910390f35b34801561016157600080fd5b5061016a610479565b60405161017791906119f7565b60405180910390f35b34801561018c57600080fd5b506101a760048036038101906101a291906112a4565b610483565b6040516101b4919061183a565b60405180910390f35b3480156101c957600080fd5b506101d2610584565b6040516101df9190611a12565b60405180910390f35b3480156101f457600080fd5b5061020f600480360381019061020a91906112f3565b61058d565b60405161021c919061183a565b60405180910390f35b34801561023157600080fd5b5061024c600480360381019061024791906112f3565b610639565b005b34801561025a57600080fd5b506102756004803603810190610270919061123f565b61067c565b60405161028291906119f7565b60405180910390f35b6102936106c4565b005b3480156102a157600080fd5b506102aa610749565b6040516102b79190611855565b60405180910390f35b3480156102cc57600080fd5b506102e760048036038101906102e291906112f3565b6107db565b6040516102f4919061183a565b60405180910390f35b34801561030957600080fd5b50610324600480360381019061031f91906112f3565b6108cf565b604051610331919061183a565b60405180910390f35b34801561034657600080fd5b50610361600480360381019061035c919061132f565b6108ed565b005b34801561036f57600080fd5b5061038a60048036038101906103859190611268565b6109ae565b60405161039791906119f7565b60405180910390f35b3480156103ac57600080fd5b506103c760048036038101906103c291906112f3565b610a35565b005b6060600380546103d890611d61565b80601f016020809104026020016040519081016040528092919081815260200182805461040490611d61565b80156104515780601f1061042657610100808354040283529160200191610451565b820191906000526020600020905b81548152906001019060200180831161043457829003601f168201915b5050505050905090565b600061046f610468610a96565b8484610a9e565b6001905092915050565b6000600254905090565b6000610490848484610c69565b6000600160008673ffffffffffffffffffffffffffffffffffffffff1673ffffffffffffffffffffffffffffffffffffffff16815260200190815260200160002060006104db610a96565b73ffffffffffffffffffffffffffffffffffffffff1673ffffffffffffffffffffffffffffffffffffffff1681526020019081526020016000205490508281101561055b576040517f08c379a000000000000000000000000000000000000000000000000000000000815260040161055290611917565b60405180910390fd5b61057885610567610a96565b85846105739190611c9b565b610a9e565b60019150509392505050565b60006012905090565b600061062f61059a610a96565b8484600160006105a8610a96565b73ffffffffffffffffffffffffffffffffffffffff1673ffffffffffffffffffffffffffffffffffffffff16815260200190815260200160002060008873ffffffffffffffffffffffffffffffffffffffff1673ffffffffffffffffffffffffffffffffffffffff1681526020019081526020016000205461062a9190611a49565b610a9e565b6001905092915050565b610644338383610c69565b600061065033846109ae565b9050600081141561066b57610665838361045b565b50610677565b610675838361058d565b505b505050565b60008060008373ffffffffffffffffffffffffffffffffffffffff1673ffffffffffffffffffffffffffffffffffffffff168152602001908152602001600020549050919050565b60006008905060006437b44ac400905060003483600a6106e49190611b23565b836106ef9190611a9f565b6106f99190611c41565b905082600a6107089190611b23565b346305f5e100846107199190611d93565b6107239190611c41565b61072d9190611a9f565b816107389190611a49565b90506107443382610ee8565b505050565b60606004805461075890611d61565b80601f016020809104026020016040519081016040528092919081815260200182805461078490611d61565b80156107d15780601f106107a6576101008083540402835291602001916107d1565b820191906000526020600020905b8154815290600101906020018083116107b457829003601f168201915b5050505050905090565b600080600160006107ea610a96565b73ffffffffffffffffffffffffffffffffffffffff1673ffffffffffffffffffffffffffffffffffffffff16815260200190815260200160002060008573ffffffffffffffffffffffffffffffffffffffff1673ffffffffffffffffffffffffffffffffffffffff168152602001908152602001600020549050828110156108a7576040517f08c379a000000000000000000000000000000000000000000000000000000000815260040161089e906119b7565b60405180910390fd5b6108c46108b2610a96565b8585846108bf9190611c9b565b610a9e565b600191505092915050565b60006108e36108dc610a96565b8484610c69565b6001905092915050565b6108f5610479565b811115610937576040517f08c379a000000000000000000000000000000000000000000000000000000000815260040161092e90611997565b60405180910390fd5b6000610941610479565b824761094d9190611c41565b6109579190611a9f565b90503373ffffffffffffffffffffffffffffffffffffffff166108fc829081150290604051600060405180830381858888f1935050505015801561099f573d6000803e3d6000fd5b506109aa338361103c565b5050565b6000600160008473ffffffffffffffffffffffffffffffffffffffff1673ffffffffffffffffffffffffffffffffffffffff16815260200190815260200160002060008373ffffffffffffffffffffffffffffffffffffffff1673ffffffffffffffffffffffffffffffffffffffff16815260200190815260200160002054905092915050565b610a40823383610c69565b6000610a4c33846109ae565b905081811015610a91576040517f08c379a0000000000000000000000000000000000000000000000000000000008152600401610a88906118f7565b60405180910390fd5b505050565b600033905090565b600073ffffffffffffffffffffffffffffffffffffffff168373ffffffffffffffffffffffffffffffffffffffff161415610b0e576040517f08c379a0000000000000000000000000000000000000000000000000000000008152600401610b0590611977565b60405180910390fd5b600073ffffffffffffffffffffffffffffffffffffffff168273ffffffffffffffffffffffffffffffffffffffff161415610b7e576040517f08c379a0000000000000000000000000000000000000000000000000000000008152600401610b75906118b7565b60405180910390fd5b80600160008573ffffffffffffffffffffffffffffffffffffffff1673ffffffffffffffffffffffffffffffffffffffff16815260200190815260200160002060008473ffffffffffffffffffffffffffffffffffffffff1673ffffffffffffffffffffffffffffffffffffffff168152602001908152602001600020819055508173ffffffffffffffffffffffffffffffffffffffff168373ffffffffffffffffffffffffffffffffffffffff167f8c5be1e5ebec7d5bd14f71427d1e84f3dd0314c0f7b2291e5b200ac8c7c3b92583604051610c5c91906119f7565b60405180910390a3505050565b600073ffffffffffffffffffffffffffffffffffffffff168373ffffffffffffffffffffffffffffffffffffffff161415610cd9576040517f08c379a0000000000000000000000000000000000000000000000000000000008152600401610cd090611957565b60405180910390fd5b600073ffffffffffffffffffffffffffffffffffffffff168273ffffffffffffffffffffffffffffffffffffffff161415610d49576040517f08c379a0000000000000000000000000000000000000000000000000000000008152600401610d4090611877565b60405180910390fd5b610d54838383611210565b60008060008573ffffffffffffffffffffffffffffffffffffffff1673ffffffffffffffffffffffffffffffffffffffff16815260200190815260200160002054905081811015610dda576040517f08c379a0000000000000000000000000000000000000000000000000000000008152600401610dd1906118d7565b60405180910390fd5b8181610de69190611c9b565b6000808673ffffffffffffffffffffffffffffffffffffffff1673ffffffffffffffffffffffffffffffffffffffff16815260200190815260200160002081905550816000808573ffffffffffffffffffffffffffffffffffffffff1673ffffffffffffffffffffffffffffffffffffffff1681526020019081526020016000206000828254610e769190611a49565b925050819055508273ffffffffffffffffffffffffffffffffffffffff168473ffffffffffffffffffffffffffffffffffffffff167fddf252ad1be2c89b69c2b068fc378daa952ba7f163c4a11628f55a4df523b3ef84604051610eda91906119f7565b60405180910390a350505050565b600073ffffffffffffffffffffffffffffffffffffffff168273ffffffffffffffffffffffffffffffffffffffff161415610f58576040517f08c379a0000000000000000000000000000000000000000000000000000000008152600401610f4f906119d7565b60405180910390fd5b610f6460008383611210565b8060026000828254610f769190611a49565b92505081905550806000808473ffffffffffffffffffffffffffffffffffffffff1673ffffffffffffffffffffffffffffffffffffffff1681526020019081526020016000206000828254610fcb9190611a49565b925050819055508173ffffffffffffffffffffffffffffffffffffffff16600073ffffffffffffffffffffffffffffffffffffffff167fddf252ad1be2c89b69c2b068fc378daa952ba7f163c4a11628f55a4df523b3ef8360405161103091906119f7565b60405180910390a35050565b600073ffffffffffffffffffffffffffffffffffffffff168273ffffffffffffffffffffffffffffffffffffffff1614156110ac576040517f08c379a00000000000000000000000000000000000000000000000000000000081526004016110a390611937565b60405180910390fd5b6110b882600083611210565b60008060008473ffffffffffffffffffffffffffffffffffffffff1673ffffffffffffffffffffffffffffffffffffffff1681526020019081526020016000205490508181101561113e576040517f08c379a000000000000000000000000000000000000000000000000000000000815260040161113590611897565b60405180910390fd5b818161114a9190611c9b565b6000808573ffffffffffffffffffffffffffffffffffffffff1673ffffffffffffffffffffffffffffffffffffffff16815260200190815260200160002081905550816002600082825461119e9190611c9b565b92505081905550600073ffffffffffffffffffffffffffffffffffffffff168373ffffffffffffffffffffffffffffffffffffffff167fddf252ad1be2c89b69c2b068fc378daa952ba7f163c4a11628f55a4df523b3ef8460405161120391906119f7565b60405180910390a3505050565b505050565b60008135905061122481611e6f565b92915050565b60008135905061123981611e86565b92915050565b60006020828403121561125157600080fd5b600061125f84828501611215565b91505092915050565b6000806040838503121561127b57600080fd5b600061128985828601611215565b925050602061129a85828601611215565b9150509250929050565b6000806000606084860312156112b957600080fd5b60006112c786828701611215565b93505060206112d886828701611215565b92505060406112e98682870161122a565b9150509250925092565b6000806040838503121561130657600080fd5b600061131485828601611215565b92505060206113258582860161122a565b9150509250929050565b60006020828403121561134157600080fd5b600061134f8482850161122a565b91505092915050565b61136181611ce1565b82525050565b600061137282611a2d565b61137c8185611a38565b935061138c818560208601611d2e565b61139581611e51565b840191505092915050565b60006113ad602383611a38565b91507f45524332303a207472616e7366657220746f20746865207a65726f206164647260008301527f65737300000000000000000000000000000000000000000000000000000000006020830152604082019050919050565b6000611413602283611a38565b91507f45524332303a206275726e20616d6f756e7420657863656564732062616c616e60008301527f63650000000000000000000000000000000000000000000000000000000000006020830152604082019050919050565b6000611479602283611a38565b91507f45524332303a20617070726f766520746f20746865207a65726f20616464726560008301527f73730000000000000000000000000000000000000000000000000000000000006020830152604082019050919050565b60006114df602683611a38565b91507f45524332303a207472616e7366657220616d6f756e742065786365656473206260008301527f616c616e636500000000000000000000000000000000000000000000000000006020830152604082019050919050565b6000611545602883611a38565b91507f45524332303a20776974686472617720616d6f756e742065786365656473206160008301527f6c6c6f77616e63650000000000000000000000000000000000000000000000006020830152604082019050919050565b60006115ab602883611a38565b91507f45524332303a207472616e7366657220616d6f756e742065786365656473206160008301527f6c6c6f77616e63650000000000000000000000000000000000000000000000006020830152604082019050919050565b6000611611602183611a38565b91507f45524332303a206275726e2066726f6d20746865207a65726f2061646472657360008301527f73000000000000000000000000000000000000000000000000000000000000006020830152604082019050919050565b6000611677602583611a38565b91507f45524332303a207472616e736665722066726f6d20746865207a65726f20616460008301527f64726573730000000000000000000000000000000000000000000000000000006020830152604082019050919050565b60006116dd602483611a38565b91507f45524332303a20617070726f76652066726f6d20746865207a65726f2061646460008301527f72657373000000000000000000000000000000000000000000000000000000006020830152604082019050919050565b6000611743601f83611a38565b91507f4a495420416d6f756e74206578636565647320746f74616c20737570706c79006000830152602082019050919050565b6000611783602583611a38565b91507f45524332303a2064656372656173656420616c6c6f77616e63652062656c6f7760008301527f207a65726f0000000000000000000000000000000000000000000000000000006020830152604082019050919050565b60006117e9601f83611a38565b91507f45524332303a206d696e7420746f20746865207a65726f2061646472657373006000830152602082019050919050565b61182581611d17565b82525050565b61183481611d21565b82525050565b600060208201905061184f6000830184611358565b92915050565b6000602082019050818103600083015261186f8184611367565b905092915050565b60006020820190508181036000830152611890816113a0565b9050919050565b600060208201905081810360008301526118b081611406565b9050919050565b600060208201905081810360008301526118d08161146c565b9050919050565b600060208201905081810360008301526118f0816114d2565b9050919050565b6000602082019050818103600083015261191081611538565b9050919050565b600060208201905081810360008301526119308161159e565b9050919050565b6000602082019050818103600083015261195081611604565b9050919050565b600060208201905081810360008301526119708161166a565b9050919050565b60006020820190508181036000830152611990816116d0565b9050919050565b600060208201905081810360008301526119b081611736565b9050919050565b600060208201905081810360008301526119d081611776565b9050919050565b600060208201905081810360008301526119f0816117dc565b9050919050565b6000602082019050611a0c600083018461181c565b92915050565b6000602082019050611a27600083018461182b565b92915050565b600081519050919050565b600082825260208201905092915050565b6000611a5482611d17565b9150611a5f83611d17565b9250827fffffffffffffffffffffffffffffffffffffffffffffffffffffffffffffffff03821115611a9457611a93611dc4565b5b828201905092915050565b6000611aaa82611d17565b9150611ab583611d17565b925082611ac557611ac4611df3565b5b828204905092915050565b6000808291508390505b6001851115611b1a57808604811115611af657611af5611dc4565b5b6001851615611b055780820291505b8081029050611b1385611e62565b9450611ada565b94509492505050565b6000611b2e82611d17565b9150611b3983611d21565b9250611b667fffffffffffffffffffffffffffffffffffffffffffffffffffffffffffffffff8484611b6e565b905092915050565b600082611b7e5760019050611c3a565b81611b8c5760009050611c3a565b8160018114611ba25760028114611bac57611bdb565b6001915050611c3a565b60ff841115611bbe57611bbd611dc4565b5b8360020a915084821115611bd557611bd4611dc4565b5b50611c3a565b5060208310610133831016604e8410600b8410161715611c105782820a905083811115611c0b57611c0a611dc4565b5b611c3a565b611c1d8484846001611ad0565b92509050818404811115611c3457611c33611dc4565b5b81810290505b9392505050565b6000611c4c82611d17565b9150611c5783611d17565b9250817fffffffffffffffffffffffffffffffffffffffffffffffffffffffffffffffff0483118215151615611c9057611c8f611dc4565b5b828202905092915050565b6000611ca682611d17565b9150611cb183611d17565b925082821015611cc457611cc3611dc4565b5b828203905092915050565b6000611cda82611cf7565b9050919050565b60008115159050919050565b6000819050919050565b600073ffffffffffffffffffffffffffffffffffffffff82169050919050565b6000819050919050565b600060ff82169050919050565b60005b83811015611d4c578082015181840152602081019050611d31565b83811115611d5b576000848401525b50505050565b60006002820490506001821680611d7957607f821691505b60208210811415611d8d57611d8c611e22565b5b50919050565b6000611d9e82611ced565b9150611da983611ced565b925082611db957611db8611df3565b5b828207905092915050565b7f4e487b7100000000000000000000000000000000000000000000000000000000600052601160045260246000fd5b7f4e487b7100000000000000000000000000000000000000000000000000000000600052601260045260246000fd5b7f4e487b7100000000000000000000000000000000000000000000000000000000600052602260045260246000fd5b6000601f19601f8301169050919050565b60008160011c9050919050565b611e7881611ccf565b8114611e8357600080fd5b50565b611e8f81611d17565b8114611e9a57600080fd5b5056fea2646970667358221220389d616035cbef02aaa115d06fcfb4f16b7f07cf5a9d90ee38b26d489793896964736f6c63430008000033",
  "immutableReferences": {},
  "source": "// SPDX-License-Identifier: MIT\r\npragma solidity ^0.8.0;\r\n\r\nimport \"@openzeppelin/contracts/token/ERC20/ERC20.sol\";\r\n\r\n\r\ncontract JiraIssueToken is ERC20 {\r\n    // AggregatorV3Interface internal priceFeed;\r\n\r\n    /**\r\n     * Network: Kovan\r\n     * Aggregator: ETH/USD\r\n     * Address: 0x9326BFA02ADD2366b30bacB125260Af641031331\r\n     */\r\n    constructor() ERC20(\"JiraIssueToken\", \"JIT\") {\r\n        /**\r\n         * Descomentar cuando incluya chainlink\r\n         * Para kovan\r\n         * priceFeed = AggregatorV3Interface(0x9326BFA02ADD2366b30bacB125260Af641031331);\r\n         * Para Rinkeby\r\n         * priceFeed = AggregatorV3Interface(0x8A753747A1Fa494EC906cE90E9f37563A8AF630e);\r\n         */\r\n    }\r\n\r\n    /**\r\n     * Acua JIT tokens basados en el valor enviado en ETH\r\n     */    \r\n    function mintJIT() public payable {\r\n        /*\r\n         * Descomentar cuando incluya chainlink\r\n        uint8 decimals = priceFeed.decimals();\r\n        require(decimals > 0, \"Price decimals must greater than zero.\");\r\n        (\r\n            uint80 roundID, \r\n            int price,\r\n            uint startedAt,\r\n            uint timeStamp,\r\n            uint80 answeredInRound\r\n        ) = priceFeed.latestRoundData();\r\n        */\r\n        uint8 decimals = 8;\r\n        int price = 239248000000;\r\n\r\n        // acuar una cantidad de JIT equivalentes al precio en dlares de los eth enviados\r\n        // hago la operacin en dos partes para evitar el overflow\r\n        // primero multiplico por la parte entera del precio\r\n        uint value = uint(uint(price) / 10**decimals) * msg.value;\r\n        // luego le sumo el resultado de multiplicar la parte decimal del precio\r\n        value += (uint(price % 10**8) * msg.value) / 10**decimals;\r\n        \r\n        //uint value = (uint(price) * msg.value) / 10**decimals;\r\n\r\n        _mint(msg.sender, value);\r\n    }\r\n\r\n    /**\r\n     * Recupera ETH del contrato quemando JIT\r\n     * \r\n     */\r\n    function recoverETH(uint256 amount) public {\r\n        require(amount <= totalSupply(), \"JIT Amount exceeds total supply\");\r\n\r\n        /*\r\n         * Calcula la cantidad de ETH en base al balance del contrato y el total de JIT en existencia\r\n         * regla de tres simple\r\n         */\r\n        uint256 ethAmount = address(this).balance * amount / totalSupply();\r\n        \r\n        payable(msg.sender).transfer(ethAmount);\r\n        _burn(msg.sender, amount);\r\n    }    \r\n\r\n    /**\r\n     * Deposita JIT en una cuenta\r\n     * El sender podr luego retirar la misma cantidad\r\n     */    \r\n    function deposit(address account, uint256 amount) public {\r\n        _transfer(msg.sender, account, amount);\r\n        \r\n        uint256 currentAllowance = allowance(msg.sender, account);\r\n        if(currentAllowance == 0) {\r\n            approve(account, amount);\r\n        } else {\r\n            increaseAllowance(account, amount);\r\n        }\r\n    }\r\n    \r\n    /**\r\n     * Retira JIT de una cuenta\r\n     * El sender tiene que estar habilitado y tener balance en la cuenta\r\n     */    \r\n    function withdraw(address account, uint256 amount) public {\r\n        _transfer(account, msg.sender, amount);\r\n\r\n        uint256 currentAllowance = allowance(msg.sender, account);\r\n        require(currentAllowance >= amount, \"ERC20: withdraw amount exceeds allowance\");\r\n    }\r\n}",
  "sourcePath": "D:/GIT Projects/issue-balance-react/contracts/JiraIssueToken.sol",
  "compiler": {
    "name": "solc",
    "version": "0.8.0+commit.c7dfd78e.Emscripten.clang"
  },
  "schemaVersion": "3.4.1",
  "updatedAt": "2021-07-09T02:23:20.228Z",
  "networkType": "ethereum",
  "devdoc": {
    "kind": "dev",
    "methods": {
      "allowance(address,address)": {
        "details": "See {IERC20-allowance}."
      },
      "approve(address,uint256)": {
        "details": "See {IERC20-approve}. Requirements: - `spender` cannot be the zero address."
      },
      "balanceOf(address)": {
        "details": "See {IERC20-balanceOf}."
      },
      "decimals()": {
        "details": "Returns the number of decimals used to get its user representation. For example, if `decimals` equals `2`, a balance of `505` tokens should be displayed to a user as `5,05` (`505 / 10 ** 2`). Tokens usually opt for a value of 18, imitating the relationship between Ether and Wei. This is the value {ERC20} uses, unless this function is overridden; NOTE: This information is only used for _display_ purposes: it in no way affects any of the arithmetic of the contract, including {IERC20-balanceOf} and {IERC20-transfer}."
      },
      "decreaseAllowance(address,uint256)": {
        "details": "Atomically decreases the allowance granted to `spender` by the caller. This is an alternative to {approve} that can be used as a mitigation for problems described in {IERC20-approve}. Emits an {Approval} event indicating the updated allowance. Requirements: - `spender` cannot be the zero address. - `spender` must have allowance for the caller of at least `subtractedValue`."
      },
      "increaseAllowance(address,uint256)": {
        "details": "Atomically increases the allowance granted to `spender` by the caller. This is an alternative to {approve} that can be used as a mitigation for problems described in {IERC20-approve}. Emits an {Approval} event indicating the updated allowance. Requirements: - `spender` cannot be the zero address."
      },
      "name()": {
        "details": "Returns the name of the token."
      },
      "symbol()": {
        "details": "Returns the symbol of the token, usually a shorter version of the name."
      },
      "totalSupply()": {
        "details": "See {IERC20-totalSupply}."
      },
      "transfer(address,uint256)": {
        "details": "See {IERC20-transfer}. Requirements: - `recipient` cannot be the zero address. - the caller must have a balance of at least `amount`."
      },
      "transferFrom(address,address,uint256)": {
        "details": "See {IERC20-transferFrom}. Emits an {Approval} event indicating the updated allowance. This is not required by the EIP. See the note at the beginning of {ERC20}. Requirements: - `sender` and `recipient` cannot be the zero address. - `sender` must have a balance of at least `amount`. - the caller must have allowance for ``sender``'s tokens of at least `amount`."
      }
    },
    "version": 1
  },
  "userdoc": {
    "kind": "user",
    "methods": {
      "constructor": {
        "notice": "Network: Kovan Aggregator: ETH/USD Address: 0x9326BFA02ADD2366b30bacB125260Af641031331"
      },
      "deposit(address,uint256)": {
        "notice": "Deposita JIT en una cuenta El sender podr luego retirar la misma cantidad"
      },
      "mintJIT()": {
        "notice": "Acua JIT tokens basados en el valor enviado en ETH"
      },
      "recoverETH(uint256)": {
        "notice": "Recupera ETH del contrato quemando JIT "
      },
      "withdraw(address,uint256)": {
        "notice": "Retira JIT de una cuenta El sender tiene que estar habilitado y tener balance en la cuenta"
      }
    },
    "version": 1
  }
}