{
  "contractName": "JiraIssueToken",
  "abi": [
    {
      "inputs": [],
      "stateMutability": "nonpayable",
      "type": "constructor"
    },
    {
      "anonymous": false,
      "inputs": [
        {
          "indexed": true,
          "internalType": "address",
          "name": "owner",
          "type": "address"
        },
        {
          "indexed": true,
          "internalType": "address",
          "name": "spender",
          "type": "address"
        },
        {
          "indexed": false,
          "internalType": "uint256",
          "name": "value",
          "type": "uint256"
        }
      ],
      "name": "Approval",
      "type": "event"
    },
    {
      "anonymous": false,
      "inputs": [
        {
          "indexed": true,
          "internalType": "address",
          "name": "from",
          "type": "address"
        },
        {
          "indexed": true,
          "internalType": "address",
          "name": "to",
          "type": "address"
        },
        {
          "indexed": false,
          "internalType": "uint256",
          "name": "value",
          "type": "uint256"
        }
      ],
      "name": "Transfer",
      "type": "event"
    },
    {
      "inputs": [
        {
          "internalType": "address",
          "name": "owner",
          "type": "address"
        },
        {
          "internalType": "address",
          "name": "spender",
          "type": "address"
        }
      ],
      "name": "allowance",
      "outputs": [
        {
          "internalType": "uint256",
          "name": "",
          "type": "uint256"
        }
      ],
      "stateMutability": "view",
      "type": "function",
      "constant": true
    },
    {
      "inputs": [
        {
          "internalType": "address",
          "name": "spender",
          "type": "address"
        },
        {
          "internalType": "uint256",
          "name": "amount",
          "type": "uint256"
        }
      ],
      "name": "approve",
      "outputs": [
        {
          "internalType": "bool",
          "name": "",
          "type": "bool"
        }
      ],
      "stateMutability": "nonpayable",
      "type": "function"
    },
    {
      "inputs": [
        {
          "internalType": "address",
          "name": "account",
          "type": "address"
        }
      ],
      "name": "balanceOf",
      "outputs": [
        {
          "internalType": "uint256",
          "name": "",
          "type": "uint256"
        }
      ],
      "stateMutability": "view",
      "type": "function",
      "constant": true
    },
    {
      "inputs": [],
      "name": "decimals",
      "outputs": [
        {
          "internalType": "uint8",
          "name": "",
          "type": "uint8"
        }
      ],
      "stateMutability": "view",
      "type": "function",
      "constant": true
    },
    {
      "inputs": [
        {
          "internalType": "address",
          "name": "spender",
          "type": "address"
        },
        {
          "internalType": "uint256",
          "name": "subtractedValue",
          "type": "uint256"
        }
      ],
      "name": "decreaseAllowance",
      "outputs": [
        {
          "internalType": "bool",
          "name": "",
          "type": "bool"
        }
      ],
      "stateMutability": "nonpayable",
      "type": "function"
    },
    {
      "inputs": [
        {
          "internalType": "address",
          "name": "spender",
          "type": "address"
        },
        {
          "internalType": "uint256",
          "name": "addedValue",
          "type": "uint256"
        }
      ],
      "name": "increaseAllowance",
      "outputs": [
        {
          "internalType": "bool",
          "name": "",
          "type": "bool"
        }
      ],
      "stateMutability": "nonpayable",
      "type": "function"
    },
    {
      "inputs": [],
      "name": "name",
      "outputs": [
        {
          "internalType": "string",
          "name": "",
          "type": "string"
        }
      ],
      "stateMutability": "view",
      "type": "function",
      "constant": true
    },
    {
      "inputs": [],
      "name": "symbol",
      "outputs": [
        {
          "internalType": "string",
          "name": "",
          "type": "string"
        }
      ],
      "stateMutability": "view",
      "type": "function",
      "constant": true
    },
    {
      "inputs": [],
      "name": "totalSupply",
      "outputs": [
        {
          "internalType": "uint256",
          "name": "",
          "type": "uint256"
        }
      ],
      "stateMutability": "view",
      "type": "function",
      "constant": true
    },
    {
      "inputs": [
        {
          "internalType": "address",
          "name": "recipient",
          "type": "address"
        },
        {
          "internalType": "uint256",
          "name": "amount",
          "type": "uint256"
        }
      ],
      "name": "transfer",
      "outputs": [
        {
          "internalType": "bool",
          "name": "",
          "type": "bool"
        }
      ],
      "stateMutability": "nonpayable",
      "type": "function"
    },
    {
      "inputs": [
        {
          "internalType": "address",
          "name": "sender",
          "type": "address"
        },
        {
          "internalType": "address",
          "name": "recipient",
          "type": "address"
        },
        {
          "internalType": "uint256",
          "name": "amount",
          "type": "uint256"
        }
      ],
      "name": "transferFrom",
      "outputs": [
        {
          "internalType": "bool",
          "name": "",
          "type": "bool"
        }
      ],
      "stateMutability": "nonpayable",
      "type": "function"
    },
    {
      "inputs": [],
      "name": "mintJIT",
      "outputs": [],
      "stateMutability": "payable",
      "type": "function",
      "payable": true
    },
    {
      "inputs": [
        {
          "internalType": "uint256",
          "name": "amount",
          "type": "uint256"
        }
      ],
      "name": "recoverETH",
      "outputs": [],
      "stateMutability": "nonpayable",
      "type": "function"
    },
    {
      "inputs": [
        {
          "internalType": "address",
          "name": "account",
          "type": "address"
        },
        {
          "internalType": "uint256",
          "name": "amount",
          "type": "uint256"
        }
      ],
      "name": "deposit",
      "outputs": [],
      "stateMutability": "nonpayable",
      "type": "function"
    },
    {
      "inputs": [
        {
          "internalType": "address",
          "name": "account",
          "type": "address"
        },
        {
          "internalType": "uint256",
          "name": "amount",
          "type": "uint256"
        }
      ],
      "name": "withdraw",
      "outputs": [],
      "stateMutability": "nonpayable",
      "type": "function"
    }
  ],
  "bytecode": "0x60806040523480156200001157600080fd5b506040518060400160405280600e81526020017f4a6972614973737565546f6b656e0000000000000000000000000000000000008152506040518060400160405280600381526020017f4a495400000000000000000000000000000000000000000000000000000000008152508160039080519060200190620000969291906200010d565b508060049080519060200190620000af9291906200010d565b505050738a753747a1fa494ec906ce90e9f37563a8af630e600560006101000a81548173ffffffffffffffffffffffffffffffffffffffff021916908373ffffffffffffffffffffffffffffffffffffffff16021790555062000222565b8280546200011b90620001bd565b90600052602060002090601f0160209004810192826200013f57600085556200018b565b82601f106200015a57805160ff19168380011785556200018b565b828001600101855582156200018b579182015b828111156200018a5782518255916020019190600101906200016d565b5b5090506200019a91906200019e565b5090565b5b80821115620001b95760008160009055506001016200019f565b5090565b60006002820490506001821680620001d657607f821691505b60208210811415620001ed57620001ec620001f3565b5b50919050565b7f4e487b7100000000000000000000000000000000000000000000000000000000600052602260045260246000fd5b61223880620002326000396000f3fe6080604052600436106100e85760003560e01c806370a082311161008a578063a9059cbb11610059578063a9059cbb146102fd578063d33355531461033a578063dd62ed3e14610363578063f3fef3a3146103a0576100e8565b806370a082311461024e5780637100a3c01461028b57806395d89b4114610295578063a457c2d7146102c0576100e8565b806323b872dd116100c657806323b872dd14610180578063313ce567146101bd57806339509351146101e857806347e7ef2414610225576100e8565b806306fdde03146100ed578063095ea7b31461011857806318160ddd14610155575b600080fd5b3480156100f957600080fd5b506101026103c9565b60405161010f9190611b3f565b60405180910390f35b34801561012457600080fd5b5061013f600480360381019061013a91906114d7565b61045b565b60405161014c9190611b24565b60405180910390f35b34801561016157600080fd5b5061016a610479565b6040516101779190611d01565b60405180910390f35b34801561018c57600080fd5b506101a760048036038101906101a29190611488565b610483565b6040516101b49190611b24565b60405180910390f35b3480156101c957600080fd5b506101d2610584565b6040516101df9190611d1c565b60405180910390f35b3480156101f457600080fd5b5061020f600480360381019061020a91906114d7565b61058d565b60405161021c9190611b24565b60405180910390f35b34801561023157600080fd5b5061024c600480360381019061024791906114d7565b610639565b005b34801561025a57600080fd5b5061027560048036038101906102709190611423565b61067c565b6040516102829190611d01565b60405180910390f35b6102936106c4565b005b3480156102a157600080fd5b506102aa6108d9565b6040516102b79190611b3f565b60405180910390f35b3480156102cc57600080fd5b506102e760048036038101906102e291906114d7565b61096b565b6040516102f49190611b24565b60405180910390f35b34801561030957600080fd5b50610324600480360381019061031f91906114d7565b610a5f565b6040516103319190611b24565b60405180910390f35b34801561034657600080fd5b50610361600480360381019061035c9190611513565b610a7d565b005b34801561036f57600080fd5b5061038a6004803603810190610385919061144c565b610b3e565b6040516103979190611d01565b60405180910390f35b3480156103ac57600080fd5b506103c760048036038101906103c291906114d7565b610bc5565b005b6060600380546103d890612081565b80601f016020809104026020016040519081016040528092919081815260200182805461040490612081565b80156104515780601f1061042657610100808354040283529160200191610451565b820191906000526020600020905b81548152906001019060200180831161043457829003601f168201915b5050505050905090565b600061046f610468610c26565b8484610c2e565b6001905092915050565b6000600254905090565b6000610490848484610df9565b6000600160008673ffffffffffffffffffffffffffffffffffffffff1673ffffffffffffffffffffffffffffffffffffffff16815260200190815260200160002060006104db610c26565b73ffffffffffffffffffffffffffffffffffffffff1673ffffffffffffffffffffffffffffffffffffffff1681526020019081526020016000205490508281101561055b576040517f08c379a000000000000000000000000000000000000000000000000000000000815260040161055290611c01565b60405180910390fd5b61057885610567610c26565b85846105739190611fa5565b610c2e565b60019150509392505050565b60006012905090565b600061062f61059a610c26565b8484600160006105a8610c26565b73ffffffffffffffffffffffffffffffffffffffff1673ffffffffffffffffffffffffffffffffffffffff16815260200190815260200160002060008873ffffffffffffffffffffffffffffffffffffffff1673ffffffffffffffffffffffffffffffffffffffff1681526020019081526020016000205461062a9190611d53565b610c2e565b6001905092915050565b610644338383610df9565b60006106503384610b3e565b9050600081141561066b57610665838361045b565b50610677565b610675838361058d565b505b505050565b60008060008373ffffffffffffffffffffffffffffffffffffffff1673ffffffffffffffffffffffffffffffffffffffff168152602001908152602001600020549050919050565b6000600560009054906101000a900473ffffffffffffffffffffffffffffffffffffffff1673ffffffffffffffffffffffffffffffffffffffff1663313ce5676040518163ffffffff1660e01b815260040160206040518083038186803b15801561072e57600080fd5b505afa158015610742573d6000803e3d6000fd5b505050506040513d601f19601f8201168201806040525081019061076691906115b3565b905060008160ff16116107ae576040517f08c379a00000000000000000000000000000000000000000000000000000000081526004016107a590611c21565b60405180910390fd5b6000806000806000600560009054906101000a900473ffffffffffffffffffffffffffffffffffffffff1673ffffffffffffffffffffffffffffffffffffffff1663feaf968c6040518163ffffffff1660e01b815260040160a06040518083038186803b15801561081e57600080fd5b505afa158015610832573d6000803e3d6000fd5b505050506040513d601f19601f82011682018060405250810190610856919061153c565b9450945094509450945060003487600a6108709190611e2d565b8661087b9190611da9565b6108859190611f4b565b905086600a6108949190611e2d565b346305f5e100876108a591906120b3565b6108af9190611f4b565b6108b99190611da9565b816108c49190611d53565b90506108d03382611078565b50505050505050565b6060600480546108e890612081565b80601f016020809104026020016040519081016040528092919081815260200182805461091490612081565b80156109615780601f1061093657610100808354040283529160200191610961565b820191906000526020600020905b81548152906001019060200180831161094457829003601f168201915b5050505050905090565b6000806001600061097a610c26565b73ffffffffffffffffffffffffffffffffffffffff1673ffffffffffffffffffffffffffffffffffffffff16815260200190815260200160002060008573ffffffffffffffffffffffffffffffffffffffff1673ffffffffffffffffffffffffffffffffffffffff16815260200190815260200160002054905082811015610a37576040517f08c379a0000000000000000000000000000000000000000000000000000000008152600401610a2e90611cc1565b60405180910390fd5b610a54610a42610c26565b858584610a4f9190611fa5565b610c2e565b600191505092915050565b6000610a73610a6c610c26565b8484610df9565b6001905092915050565b610a85610479565b811115610ac7576040517f08c379a0000000000000000000000000000000000000000000000000000000008152600401610abe90611ca1565b60405180910390fd5b6000610ad1610479565b8247610add9190611f4b565b610ae79190611da9565b90503373ffffffffffffffffffffffffffffffffffffffff166108fc829081150290604051600060405180830381858888f19350505050158015610b2f573d6000803e3d6000fd5b50610b3a33836111cc565b5050565b6000600160008473ffffffffffffffffffffffffffffffffffffffff1673ffffffffffffffffffffffffffffffffffffffff16815260200190815260200160002060008373ffffffffffffffffffffffffffffffffffffffff1673ffffffffffffffffffffffffffffffffffffffff16815260200190815260200160002054905092915050565b610bd0823383610df9565b6000610bdc3384610b3e565b905081811015610c21576040517f08c379a0000000000000000000000000000000000000000000000000000000008152600401610c1890611be1565b60405180910390fd5b505050565b600033905090565b600073ffffffffffffffffffffffffffffffffffffffff168373ffffffffffffffffffffffffffffffffffffffff161415610c9e576040517f08c379a0000000000000000000000000000000000000000000000000000000008152600401610c9590611c81565b60405180910390fd5b600073ffffffffffffffffffffffffffffffffffffffff168273ffffffffffffffffffffffffffffffffffffffff161415610d0e576040517f08c379a0000000000000000000000000000000000000000000000000000000008152600401610d0590611ba1565b60405180910390fd5b80600160008573ffffffffffffffffffffffffffffffffffffffff1673ffffffffffffffffffffffffffffffffffffffff16815260200190815260200160002060008473ffffffffffffffffffffffffffffffffffffffff1673ffffffffffffffffffffffffffffffffffffffff168152602001908152602001600020819055508173ffffffffffffffffffffffffffffffffffffffff168373ffffffffffffffffffffffffffffffffffffffff167f8c5be1e5ebec7d5bd14f71427d1e84f3dd0314c0f7b2291e5b200ac8c7c3b92583604051610dec9190611d01565b60405180910390a3505050565b600073ffffffffffffffffffffffffffffffffffffffff168373ffffffffffffffffffffffffffffffffffffffff161415610e69576040517f08c379a0000000000000000000000000000000000000000000000000000000008152600401610e6090611c61565b60405180910390fd5b600073ffffffffffffffffffffffffffffffffffffffff168273ffffffffffffffffffffffffffffffffffffffff161415610ed9576040517f08c379a0000000000000000000000000000000000000000000000000000000008152600401610ed090611b61565b60405180910390fd5b610ee48383836113a0565b60008060008573ffffffffffffffffffffffffffffffffffffffff1673ffffffffffffffffffffffffffffffffffffffff16815260200190815260200160002054905081811015610f6a576040517f08c379a0000000000000000000000000000000000000000000000000000000008152600401610f6190611bc1565b60405180910390fd5b8181610f769190611fa5565b6000808673ffffffffffffffffffffffffffffffffffffffff1673ffffffffffffffffffffffffffffffffffffffff16815260200190815260200160002081905550816000808573ffffffffffffffffffffffffffffffffffffffff1673ffffffffffffffffffffffffffffffffffffffff16815260200190815260200160002060008282546110069190611d53565b925050819055508273ffffffffffffffffffffffffffffffffffffffff168473ffffffffffffffffffffffffffffffffffffffff167fddf252ad1be2c89b69c2b068fc378daa952ba7f163c4a11628f55a4df523b3ef8460405161106a9190611d01565b60405180910390a350505050565b600073ffffffffffffffffffffffffffffffffffffffff168273ffffffffffffffffffffffffffffffffffffffff1614156110e8576040517f08c379a00000000000000000000000000000000000000000000000000000000081526004016110df90611ce1565b60405180910390fd5b6110f4600083836113a0565b80600260008282546111069190611d53565b92505081905550806000808473ffffffffffffffffffffffffffffffffffffffff1673ffffffffffffffffffffffffffffffffffffffff168152602001908152602001600020600082825461115b9190611d53565b925050819055508173ffffffffffffffffffffffffffffffffffffffff16600073ffffffffffffffffffffffffffffffffffffffff167fddf252ad1be2c89b69c2b068fc378daa952ba7f163c4a11628f55a4df523b3ef836040516111c09190611d01565b60405180910390a35050565b600073ffffffffffffffffffffffffffffffffffffffff168273ffffffffffffffffffffffffffffffffffffffff16141561123c576040517f08c379a000000000000000000000000000000000000000000000000000000000815260040161123390611c41565b60405180910390fd5b611248826000836113a0565b60008060008473ffffffffffffffffffffffffffffffffffffffff1673ffffffffffffffffffffffffffffffffffffffff168152602001908152602001600020549050818110156112ce576040517f08c379a00000000000000000000000000000000000000000000000000000000081526004016112c590611b81565b60405180910390fd5b81816112da9190611fa5565b6000808573ffffffffffffffffffffffffffffffffffffffff1673ffffffffffffffffffffffffffffffffffffffff16815260200190815260200160002081905550816002600082825461132e9190611fa5565b92505081905550600073ffffffffffffffffffffffffffffffffffffffff168373ffffffffffffffffffffffffffffffffffffffff167fddf252ad1be2c89b69c2b068fc378daa952ba7f163c4a11628f55a4df523b3ef846040516113939190611d01565b60405180910390a3505050565b505050565b6000813590506113b48161218f565b92915050565b6000815190506113c9816121a6565b92915050565b6000813590506113de816121bd565b92915050565b6000815190506113f3816121bd565b92915050565b600081519050611408816121eb565b92915050565b60008151905061141d816121d4565b92915050565b60006020828403121561143557600080fd5b6000611443848285016113a5565b91505092915050565b6000806040838503121561145f57600080fd5b600061146d858286016113a5565b925050602061147e858286016113a5565b9150509250929050565b60008060006060848603121561149d57600080fd5b60006114ab868287016113a5565b93505060206114bc868287016113a5565b92505060406114cd868287016113cf565b9150509250925092565b600080604083850312156114ea57600080fd5b60006114f8858286016113a5565b9250506020611509858286016113cf565b9150509250929050565b60006020828403121561152557600080fd5b6000611533848285016113cf565b91505092915050565b600080600080600060a0868803121561155457600080fd5b6000611562888289016113f9565b9550506020611573888289016113ba565b9450506040611584888289016113e4565b9350506060611595888289016113e4565b92505060806115a6888289016113f9565b9150509295509295909350565b6000602082840312156115c557600080fd5b60006115d38482850161140e565b91505092915050565b6115e581611feb565b82525050565b60006115f682611d37565b6116008185611d42565b935061161081856020860161204e565b61161981612171565b840191505092915050565b6000611631602383611d42565b91507f45524332303a207472616e7366657220746f20746865207a65726f206164647260008301527f65737300000000000000000000000000000000000000000000000000000000006020830152604082019050919050565b6000611697602283611d42565b91507f45524332303a206275726e20616d6f756e7420657863656564732062616c616e60008301527f63650000000000000000000000000000000000000000000000000000000000006020830152604082019050919050565b60006116fd602283611d42565b91507f45524332303a20617070726f766520746f20746865207a65726f20616464726560008301527f73730000000000000000000000000000000000000000000000000000000000006020830152604082019050919050565b6000611763602683611d42565b91507f45524332303a207472616e7366657220616d6f756e742065786365656473206260008301527f616c616e636500000000000000000000000000000000000000000000000000006020830152604082019050919050565b60006117c9602883611d42565b91507f45524332303a20776974686472617720616d6f756e742065786365656473206160008301527f6c6c6f77616e63650000000000000000000000000000000000000000000000006020830152604082019050919050565b600061182f602883611d42565b91507f45524332303a207472616e7366657220616d6f756e742065786365656473206160008301527f6c6c6f77616e63650000000000000000000000000000000000000000000000006020830152604082019050919050565b6000611895602683611d42565b91507f507269636520646563696d616c73206d7573742067726561746572207468616e60008301527f207a65726f2e00000000000000000000000000000000000000000000000000006020830152604082019050919050565b60006118fb602183611d42565b91507f45524332303a206275726e2066726f6d20746865207a65726f2061646472657360008301527f73000000000000000000000000000000000000000000000000000000000000006020830152604082019050919050565b6000611961602583611d42565b91507f45524332303a207472616e736665722066726f6d20746865207a65726f20616460008301527f64726573730000000000000000000000000000000000000000000000000000006020830152604082019050919050565b60006119c7602483611d42565b91507f45524332303a20617070726f76652066726f6d20746865207a65726f2061646460008301527f72657373000000000000000000000000000000000000000000000000000000006020830152604082019050919050565b6000611a2d601f83611d42565b91507f4a495420416d6f756e74206578636565647320746f74616c20737570706c79006000830152602082019050919050565b6000611a6d602583611d42565b91507f45524332303a2064656372656173656420616c6c6f77616e63652062656c6f7760008301527f207a65726f0000000000000000000000000000000000000000000000000000006020830152604082019050919050565b6000611ad3601f83611d42565b91507f45524332303a206d696e7420746f20746865207a65726f2061646472657373006000830152602082019050919050565b611b0f81612021565b82525050565b611b1e8161202b565b82525050565b6000602082019050611b3960008301846115dc565b92915050565b60006020820190508181036000830152611b5981846115eb565b905092915050565b60006020820190508181036000830152611b7a81611624565b9050919050565b60006020820190508181036000830152611b9a8161168a565b9050919050565b60006020820190508181036000830152611bba816116f0565b9050919050565b60006020820190508181036000830152611bda81611756565b9050919050565b60006020820190508181036000830152611bfa816117bc565b9050919050565b60006020820190508181036000830152611c1a81611822565b9050919050565b60006020820190508181036000830152611c3a81611888565b9050919050565b60006020820190508181036000830152611c5a816118ee565b9050919050565b60006020820190508181036000830152611c7a81611954565b9050919050565b60006020820190508181036000830152611c9a816119ba565b9050919050565b60006020820190508181036000830152611cba81611a20565b9050919050565b60006020820190508181036000830152611cda81611a60565b9050919050565b60006020820190508181036000830152611cfa81611ac6565b9050919050565b6000602082019050611d166000830184611b06565b92915050565b6000602082019050611d316000830184611b15565b92915050565b600081519050919050565b600082825260208201905092915050565b6000611d5e82612021565b9150611d6983612021565b9250827fffffffffffffffffffffffffffffffffffffffffffffffffffffffffffffffff03821115611d9e57611d9d6120e4565b5b828201905092915050565b6000611db482612021565b9150611dbf83612021565b925082611dcf57611dce612113565b5b828204905092915050565b6000808291508390505b6001851115611e2457808604811115611e0057611dff6120e4565b5b6001851615611e0f5780820291505b8081029050611e1d85612182565b9450611de4565b94509492505050565b6000611e3882612021565b9150611e438361202b565b9250611e707fffffffffffffffffffffffffffffffffffffffffffffffffffffffffffffffff8484611e78565b905092915050565b600082611e885760019050611f44565b81611e965760009050611f44565b8160018114611eac5760028114611eb657611ee5565b6001915050611f44565b60ff841115611ec857611ec76120e4565b5b8360020a915084821115611edf57611ede6120e4565b5b50611f44565b5060208310610133831016604e8410600b8410161715611f1a5782820a905083811115611f1557611f146120e4565b5b611f44565b611f278484846001611dda565b92509050818404811115611f3e57611f3d6120e4565b5b81810290505b9392505050565b6000611f5682612021565b9150611f6183612021565b9250817fffffffffffffffffffffffffffffffffffffffffffffffffffffffffffffffff0483118215151615611f9a57611f996120e4565b5b828202905092915050565b6000611fb082612021565b9150611fbb83612021565b925082821015611fce57611fcd6120e4565b5b828203905092915050565b6000611fe482612001565b9050919050565b60008115159050919050565b6000819050919050565b600073ffffffffffffffffffffffffffffffffffffffff82169050919050565b6000819050919050565b600060ff82169050919050565b600069ffffffffffffffffffff82169050919050565b60005b8381101561206c578082015181840152602081019050612051565b8381111561207b576000848401525b50505050565b6000600282049050600182168061209957607f821691505b602082108114156120ad576120ac612142565b5b50919050565b60006120be82611ff7565b91506120c983611ff7565b9250826120d9576120d8612113565b5b828207905092915050565b7f4e487b7100000000000000000000000000000000000000000000000000000000600052601160045260246000fd5b7f4e487b7100000000000000000000000000000000000000000000000000000000600052601260045260246000fd5b7f4e487b7100000000000000000000000000000000000000000000000000000000600052602260045260246000fd5b6000601f19601f8301169050919050565b60008160011c9050919050565b61219881611fd9565b81146121a357600080fd5b50565b6121af81611ff7565b81146121ba57600080fd5b50565b6121c681612021565b81146121d157600080fd5b50565b6121dd8161202b565b81146121e857600080fd5b50565b6121f481612038565b81146121ff57600080fd5b5056fea264697066735822122022913268ca6c2d4662cc85699fda95a18bc4b19506d6ab81513454b44f13b2b564736f6c63430008000033",
  "immutableReferences": {},
  "source": "// SPDX-License-Identifier: MIT\r\npragma solidity ^0.8.0;\r\n\r\nimport \"@openzeppelin/contracts/token/ERC20/ERC20.sol\";\r\nimport \"@chainlink/contracts/src/v0.8/interfaces/AggregatorV3Interface.sol\";\r\n\r\ncontract JiraIssueToken is ERC20 {\r\n    AggregatorV3Interface internal priceFeed;\r\n\r\n    /**\r\n     * Network: Rinkeby\r\n     * Aggregator: ETH/USD\r\n     * Address: 0x8A753747A1Fa494EC906cE90E9f37563A8AF630e\r\n     */\r\n    constructor() ERC20(\"JiraIssueToken\", \"JIT\") {\r\n        /**\r\n         * Descomentar cuando incluya chainlink\r\n         * Para kovan\r\n         * priceFeed = AggregatorV3Interface(0x9326BFA02ADD2366b30bacB125260Af641031331);\r\n         * Para Rinkeby\r\n         * priceFeed = AggregatorV3Interface(0x8A753747A1Fa494EC906cE90E9f37563A8AF630e);\r\n         */\r\n        priceFeed = AggregatorV3Interface(0x8A753747A1Fa494EC906cE90E9f37563A8AF630e);\r\n    }\r\n\r\n    /**\r\n     * Acua JIT tokens basados en el valor enviado en ETH\r\n     */    \r\n    function mintJIT() public payable {\r\n        /*\r\n         * Descomentar cuando incluya chainlink\r\n         */\r\n        uint8 decimals = priceFeed.decimals();\r\n        require(decimals > 0, \"Price decimals must greater than zero.\");\r\n        (\r\n            uint80 roundID, \r\n            int price,\r\n            uint startedAt,\r\n            uint timeStamp,\r\n            uint80 answeredInRound\r\n        ) = priceFeed.latestRoundData();\r\n        /*\r\n         * Para test sin chainlink\r\n        uint8 decimals = 8;\r\n        int price = 239248000000;\r\n        */\r\n\r\n        // acuar una cantidad de JIT equivalentes al precio en dlares de los eth enviados\r\n        // hago la operacin en dos partes para evitar el overflow\r\n        // primero multiplico por la parte entera del precio\r\n        uint value = uint(uint(price) / 10**decimals) * msg.value;\r\n        // luego le sumo el resultado de multiplicar la parte decimal del precio\r\n        value += (uint(price % 10**8) * msg.value) / 10**decimals;\r\n        \r\n        //uint value = (uint(price) * msg.value) / 10**decimals;\r\n\r\n        _mint(msg.sender, value);\r\n    }\r\n\r\n    /**\r\n     * Recupera ETH del contrato quemando JIT\r\n     * \r\n     */\r\n    function recoverETH(uint256 amount) public {\r\n        require(amount <= totalSupply(), \"JIT Amount exceeds total supply\");\r\n\r\n        /*\r\n         * Calcula la cantidad de ETH en base al balance del contrato y el total de JIT en existencia\r\n         * regla de tres simple\r\n         */\r\n        uint256 ethAmount = address(this).balance * amount / totalSupply();\r\n        \r\n        payable(msg.sender).transfer(ethAmount);\r\n        _burn(msg.sender, amount);\r\n    }    \r\n\r\n    /**\r\n     * Deposita JIT en una cuenta\r\n     * El sender podr luego retirar la misma cantidad\r\n     */    \r\n    function deposit(address account, uint256 amount) public {\r\n        _transfer(msg.sender, account, amount);\r\n        \r\n        uint256 currentAllowance = allowance(msg.sender, account);\r\n        if(currentAllowance == 0) {\r\n            approve(account, amount);\r\n        } else {\r\n            increaseAllowance(account, amount);\r\n        }\r\n    }\r\n    \r\n    /**\r\n     * Retira JIT de una cuenta\r\n     * El sender tiene que estar habilitado y tener balance en la cuenta\r\n     */    \r\n    function withdraw(address account, uint256 amount) public {\r\n        _transfer(account, msg.sender, amount);\r\n\r\n        uint256 currentAllowance = allowance(msg.sender, account);\r\n        require(currentAllowance >= amount, \"ERC20: withdraw amount exceeds allowance\");\r\n    }\r\n}",
  "sourcePath": "D:/GIT Projects/issue-balance-react/contracts/JiraIssueToken.sol",
  "compiler": {
    "name": "solc",
    "version": "0.8.0+commit.c7dfd78e.Emscripten.clang"
  },
  "schemaVersion": "3.4.1",
  "updatedAt": "2021-07-12T01:27:26.338Z",
  "networkType": "ethereum",
  "devdoc": {
    "kind": "dev",
    "methods": {
      "allowance(address,address)": {
        "details": "See {IERC20-allowance}."
      },
      "approve(address,uint256)": {
        "details": "See {IERC20-approve}. Requirements: - `spender` cannot be the zero address."
      },
      "balanceOf(address)": {
        "details": "See {IERC20-balanceOf}."
      },
      "decimals()": {
        "details": "Returns the number of decimals used to get its user representation. For example, if `decimals` equals `2`, a balance of `505` tokens should be displayed to a user as `5,05` (`505 / 10 ** 2`). Tokens usually opt for a value of 18, imitating the relationship between Ether and Wei. This is the value {ERC20} uses, unless this function is overridden; NOTE: This information is only used for _display_ purposes: it in no way affects any of the arithmetic of the contract, including {IERC20-balanceOf} and {IERC20-transfer}."
      },
      "decreaseAllowance(address,uint256)": {
        "details": "Atomically decreases the allowance granted to `spender` by the caller. This is an alternative to {approve} that can be used as a mitigation for problems described in {IERC20-approve}. Emits an {Approval} event indicating the updated allowance. Requirements: - `spender` cannot be the zero address. - `spender` must have allowance for the caller of at least `subtractedValue`."
      },
      "increaseAllowance(address,uint256)": {
        "details": "Atomically increases the allowance granted to `spender` by the caller. This is an alternative to {approve} that can be used as a mitigation for problems described in {IERC20-approve}. Emits an {Approval} event indicating the updated allowance. Requirements: - `spender` cannot be the zero address."
      },
      "name()": {
        "details": "Returns the name of the token."
      },
      "symbol()": {
        "details": "Returns the symbol of the token, usually a shorter version of the name."
      },
      "totalSupply()": {
        "details": "See {IERC20-totalSupply}."
      },
      "transfer(address,uint256)": {
        "details": "See {IERC20-transfer}. Requirements: - `recipient` cannot be the zero address. - the caller must have a balance of at least `amount`."
      },
      "transferFrom(address,address,uint256)": {
        "details": "See {IERC20-transferFrom}. Emits an {Approval} event indicating the updated allowance. This is not required by the EIP. See the note at the beginning of {ERC20}. Requirements: - `sender` and `recipient` cannot be the zero address. - `sender` must have a balance of at least `amount`. - the caller must have allowance for ``sender``'s tokens of at least `amount`."
      }
    },
    "version": 1
  },
  "userdoc": {
    "kind": "user",
    "methods": {
      "constructor": {
        "notice": "Network: Rinkeby Aggregator: ETH/USD Address: 0x8A753747A1Fa494EC906cE90E9f37563A8AF630e"
      },
      "deposit(address,uint256)": {
        "notice": "Deposita JIT en una cuenta El sender podr luego retirar la misma cantidad"
      },
      "mintJIT()": {
        "notice": "Acua JIT tokens basados en el valor enviado en ETH"
      },
      "recoverETH(uint256)": {
        "notice": "Recupera ETH del contrato quemando JIT "
      },
      "withdraw(address,uint256)": {
        "notice": "Retira JIT de una cuenta El sender tiene que estar habilitado y tener balance en la cuenta"
      }
    },
    "version": 1
  }
}